:020000040010EA
:100000000080002059011000C1211000C321100000
:10001000C5211000C7211000C921100000000000F8
:10002000000000000000000000000000CB211000D4
:10003000CD21100000000000CF211000D1211000C0
:10004000D3211000D3211000D3211000D3211000A0
:10005000110F1000E51D1000D3211000D321100056
:10006000D3211000D3211000D3211000D321100080
:10007000D3211000D3211000D3211000D321100070
:10008000D3211000D3211000493F1000D3211000CC
:10009000D3211000291B1000B91A1000D321100021
:1000A000D3211000D3211000D3211000A918100073
:1000B000A51E1000611E1000D3211000D3211000D6
:1000C000D3211000D3211000D3211000D321100020
:1000D000D3211000D3211000D3211000D321100010
:1000E000D3211000D3211000D3211000D321100000
:1000F0008D4F10008D4F10008D4F10008D4F100050
:100100008D4F10008D4F10000D9210008D4F10007C
:100110008D4F1000D3211000D3211000D3211000E7
:10012000D3211000D3211000D3211000D3211000BF
:10013000D3211000D3211000D3211000D3211000AF
:10014000D3211000D3211000D3211000D32110009F
:10015000D3211000D321100068466FF3820085463A
:1001600001488047014800471D251000012010006C
:100170002DE9F04F754C1E46C4E9072300231546B0
:10018000C4E9090187B023616361A36100285DD0E0
:1001900000234FF0010C1F46DFF8B4E15A184FEA74
:1001A000D20810F8088002F007020CFA02F218EAEE
:1001B000020F18BF13F80E2003F1010318BF1743F5
:1001C000092BEBD1F9070ED5A9464FF0000805EB36
:1001D000860AD1453CD130460AF008FF0146404628
:1001E0000BF010F820603A076CD47B0773D4B80783
:1001F00074D4F90614D5D4F800A0286851460BF041
:1002000009F9002814BF01234FF0FF334FF0010814
:100210004FF000098DF81430B04562D3A4F8049073
:10022000BA0607D54FF00108D5F80090B04577D34E
:10023000C4F808907B0606D50127D5F80080B742A0
:1002400079D3C4F80C8007B0BDE8F08FFF27BBE777
:10025000404659F8041B0AF019FE8046B9E7009998
:100260005BF8040B0AF010FE002382468046394AF0
:1002700051464046CDE902230AF010FF029A01469A
:10028000804610680AF002FE039B029A01339945EA
:1002900042F8040BECD1019B9B45E0D14FF00008E4
:1002A000DFF8B0A030460AF0A1FEDAF800B001464F
:1002B00058460AF0A7FF08F10108C1454AF8040BA7
:1002C000F0D196E74FF003092368AB46009305EBA6
:1002D00086030193DFE74FF00209F5E74FF00109CC
:1002E000F2E7514655F828000BF094F8002814BFA7
:1002F00001224FF0FF3208F0010306A90B4403F876
:10030000042C9DF914309DF9152008F101081344BF
:10031000002BB8BF5B4209EB63031FFA83F97BE74D
:1003200055F828A0484651460BF074F800B1D14664
:1003300008F101087AE755F82790404649460BF046
:100340004BF800B1C846013779E700BF280200200A
:1003500010E4100038020020014B9868704700BF7D
:1003600028020020014BD868704700BF28020020F7
:10037000014B1868704700BF28020020014B186924
:1003800009F0C6BC2802002008B5024B98880AF084
:100390002DFE08BD28020020014B1869704700BFE0
:1003A0002802002000000000F8B5174D2E6A3046E4
:1003B0000AF01CFE09F07CFC044630460AF0D4F931
:1003C00006460F46A8880AF0DFF90DA3D3E90023FB
:1003D0000AF044FA32463B460AF08AF802460B46D7
:1003E000304639460AF064FB0AF0FAFC09F060FC7A
:1003F00021460AF04BFD014620460AF003FFF8BDF6
:100400009A9999999999D93F2802002000000000F3
:1004100038B5114D2C6920460AF0C8F90CA3D3E970
:1004200000230AF08DFC70B9214620460AF036FE02
:1004300021460AF033FE6D6909F06AFC0146284640
:100440000AF0E0FE38BD0020FCE700BFAFF30080FB
:100450008DEDB5A0F7C6B03E2802002000000000D8
:1004600038B50F4C256928460AF0A0F90AA3D3E94C
:1004700000230AF065FC58B9294628460AF00EFE0A
:100480000146A0690AF0BEFE06490AF0FDFC38BD2F
:100490000020FCE7AFF300808DEDB5A0F7C6B03EBD
:1004A000280200200000404038B50446B0F90200A0
:1004B0000AF0A0FD4FF060510AF0F0FD0E490AF07D
:1004C000EDFD0E4D2860B4F904000AF093FD4FF0E5
:1004D00060510AF0E3FD08490AF0E0FD6860B4F9F4
:1004E00006000AF087FD4FF060510AF0D7FD02497F
:1004F0000AF0D4FDA86038BD0000B44360020020BB
:1005000070B5054603F09EFD0AF074FD0446B5F98A
:1005100002000AF06FFD4FF060510AF0BFFD214666
:100520000AF0BCFD0D4EF060B5F904000AF062FD62
:100530004FF060510AF0B2FD21460AF0AFFD306184
:10054000B5F906000AF056FD4FF060510AF0A6FD1D
:1005500021460AF0A3FD706170BD00BF600200205B
:1005600070B5054603F074FD0AF044FD0446B5F984
:1005700002000AF03FFD4FF060510AF08FFD214666
:100580000AF08CFD0D4EB061B5F904000AF032FDA1
:100590004FF060510AF082FD21460AF07FFDF061C4
:1005A000B5F906000AF026FD4FF060510AF076FD1D
:1005B00021460AF073FD306270BD00BF600200206A
:1005C0000246034B0068516803C390681860704787
:1005D000540200202DE9F04790B000F062F90AF0D3
:1005E00005FD0AF0E3F802460B468B480BF086FF48
:1005F00000F04EF90AF0FAFC0AF0D8F802460B4671
:1006000086480BF07BFF00F049F90AF0EFFC0AF096
:10061000CDF802460B4682480BF070FF00F03AF925
:100620000AF0E4FC0AF0C2F802460B467D480BF0E3
:1006300065FF00F031F90AF0D9FC0AF0B7F802467C
:100640000B4679480BF05AFF00F020F90AF0CEFC77
:100650000AF0ACF802460B4674480BF04FFF03203B
:1006600000F00CFB022003F05BFE012003F058FEBB
:10067000002003F055FE012000F0E6FC03F082FDAF
:100680006B4F08BB40F6B8316A4803F0B3FDC0B900
:1006900038604FF47A7000F021FC012003F048FE2E
:1006A00065480BF0B1FF04A801F0FEFA04A801F0C0
:1006B00073FB03F04FFC48B17E21604A604800F0B4
:1006C000DBFD02233B60E4E70123FBE702A904A86A
:1006D00001F086FB04A801F009FBDDE9021259488C
:1006E0000BF00CFF012003F032FE052203205649D7
:1006F00003F094FC10B18C21504ADFE732220A202B
:10070000524903F08BFC10B190214C4AD6E73222BB
:1007100004204F4903F082FC002879D14D4CDFF8CA
:100720003891DFF838A100F0B5FA012003F00FFE90
:10073000002003F00CFE022003F009FE3B689BB989
:10074000474D68680AF052FC6062B5F908000AF08B
:1007500051FC49460AF056FDA06228680AF046FCA2
:1007600051460AF04FFDE062236804A804936368D1
:100770000593A3680693E368079323690893636965
:100780000993A3690A93E3690B93236A0C93636A41
:100790000D93A36A0E93E36A0F9300F085F8A8BB4C
:1007A00000F08CFB02A905460DF1060000F0A2F84E
:1007B00060BB00F083FBBDF80610064619B9421B6A
:1007C00028480BF09BFEBDF80680B8F1010F07D159
:1007D00041462548721B0BF091FE404603F0A8FDF0
:1007E000BDF80610022906D12048721B0BF086FEC8
:1007F000002003F09DFDBDF80610032906D11C481A
:10080000721B0BF07BFE022003F092FD30BF8AE7E3
:1008100094210A4A52E700BF19E410002DE41000A9
:1008200044E410005DE4100072E4100087E410005E
:1008300004000020C10510009AE41000B0E410008C
:10084000C6E41000D4E41000A90410000105100053
:1008500061051000600200200000C84200007A44D8
:100860005402002004E5100039E510006DE5100089
:10087000A7E510000123C20800F0070003FA00F00A
:10088000014B9B5C184070471AEB1000002070472A
:10089000042070470C2070470520704740F2473015
:1008A00070474FF4BA60704730B5D0B100220E499E
:1008B0000E4C0B88043804EB830450F8045F44F8B2
:1008C000225005323C2AF8D101339BB2042B85BF5C
:1008D000002001220120064B92BF0B8008801A7075
:1008E00030BD4FF0FF30FBE7DC050020D8040020CE
:1008F000C80500202DE9F04FAF4B8DB01B788B461B
:100900000790002B00F076810824AC4DAC4FDFF847
:10091000B482A4F10806404605233A463146FFF763
:1009200027FC3046FFF7A6FF10B1FFF715FD286042
:10093000E01FFFF79FFF10B1FFF714FD6860A01FD5
:10094000FFF798FF10B1FFF713FDA860601FFFF7D6
:1009500091FF10B1FFF712FDE860201FFFF78AFF3B
:1009600010B1FFF711FD2861E01EFFF783FF10B102
:10097000FFF712FD6861A01EFFF77CFF10B1FFF7C3
:1009800013FDA861601EFFF775FF10B1FFF740FD72
:10099000E8612046FFF76EFF10B1FFF761FD2862A6
:1009A0000934742C07F1140705F12405B1D1002492
:1009B000824D854E854F2046FFF75CFF68B12A685F
:1009C00057F824300BA90B920093012256F82430DB
:1009D000084600F013F90B9B2B6001346C2C05F1D9
:1009E0000405E8D100249422002179480AF024FF6C
:1009F000784B794F0693764B0593784B0493784B5D
:100A0000002203EB84080023764E2546CDE902231D
:100A100017F801AB26441DE016F8012B6C4B58F873
:100A2000049B53F8220009F0C1FECDE908014846B5
:100A300009F0BCFE02460B46DDE9080109F00EFF95
:100A400002460B46DDE9020109F052FDCDE9020143
:100A50000135EDB2AA45DFD8AAEB0405A24538BF9F
:100A600000252C4404F0FF052C46049B5D4E13F832
:100A7000018BDFF848A10493594B2E4403EB850901
:100A8000A04576D8069BA8EB050453F8040B454512
:100A900088BF002400F10040069309F087FEDDE9DD
:100AA000022309F0DBFE09F0C3F800224E4B09F0E7
:100AB0001FFD0B4602464C49002009F0F9FF0AF0E1
:100AC0008FF9059B2C4443F8040B0593474B04F026
:100AD000FF049F4293D13E4B454CD3F890701E6A61
:100AE000DD6ED3F884006760A660E56000212060B9
:100AF0000AF0CCF939460AF0C9F931460AF0C6F9CC
:100B000029460AF0C3F92546A146804600242E4610
:100B10000027394640460AF055FC00284AD1414694
:100B2000D9F800000AF06EFB0134A4B2042C49F895
:100B3000040BEED1079B9BB100244FF00008274621
:100B400055F8049B414648461FFA84FA0AF062FCB5
:100B500008B1C84657460134042CF1D1079B1F80C9
:100B6000BBF1000F48D00020CBF800600DB0BDE80D
:100B7000F08F59F8040B09F019FE02460B4616F8DF
:100B8000011BCDE908236B298CBF4FF07E505AF82A
:100B9000210009F00BFEDDE9082309F05FFE0246A3
:100BA0000B46DDE9020109F0A3FC0134CDE90201A5
:100BB000E4B265E73846B7E7C80500209002002098
:100BC000D80400201AEB100094E71000E4E51000B0
:100BD000400400206CE9100000EA100044E9100015
:100BE00028EB100025EA10000000F03F25EA100075
:100BF000CC0500200120B9E75846B7E72DE9F74FAB
:100C0000804689460C9819461E4601920AF03CF926
:100C1000002405464FF0000A4FF07E5B019B9C428A
:100C200002D103B0BDE8F08F314658F824000AF035
:100C30002BF95146074628460AF0C4FB20B938462E
:100C400029460AF0DFFA0746594638460AF0E2FB21
:100C500048B9514638460AF0BFFB00B1574649F83B
:100C600024700134DAE75F46F9E710B51C461146F7
:100C700000201A4608F0C0FF204610BD08B500F05D
:100C8000A1F800F043F8002008F0D0FABDE80840D1
:100C900008F0E0BD08B500F065F808F0F7FA024B7F
:100CA000024A5A6008BD00BF0003004011E2B102D1
:100CB0004FF0FF3070470020704708B50B680BB14C
:100CC00048689847002008BD08B50C4A1378012BE6
:100CD00004D067210A4A0B4800F0CEFAB2F8CC30B3
:100CE000172B02D96B21084AF5E7013322F83300AC
:100CF00002EBC3004160A2F8CC3008BDE005002043
:100D0000FCEE10002DEF10009AEF100008B5124B0A
:100D10001978F9B91846D4220AF08EFD024600F17E
:100D2000080142F8C81FC0F8D420021DC0F8D8201E
:100D30004FF00112C0F8DC200122084902704FF682
:100D4000FF70FFF7C1FFBDE8084040F6017004499D
:100D5000FFF7BABF08BD00BFE0050020B70C1000C8
:100D6000BB0C100010B5094C2378012B0CD10420CA
:100D700004F1D00108F0A2FC20B17921044A054811
:100D800000F07AFA0223237010BD00BFE0050020B6
:100D9000DAEF10002DEF100038B5094B05461B782F
:100DA0000C4663B104220823114640F6017008F096
:100DB000C7FBC0E90054BDE8384008F0DBBB38BDD4
:100DC000E005002038B5012383F310884FF0FF328F
:100DD000324B3349C3F88020C3F88420C3F88820FD
:100DE000C3F88021C3F88421C3F8882143F23E125E
:100DF0002C4B1A630A6B002AFCD03F2203211A6392
:100E00000022294B9A711972012103F1007303F535
:100E10001033C3F8A01FC3F8B02FD3F8E04F012C54
:100E2000FBD10025214B224A1D621C634FF08443F5
:100E3000C3F8004AC3F8804AD2F8AC3023F48833B0
:100E400043F48053C2F8AC3000F0D4F94FF453723D
:100E5000144B2046C3F89C20A3F5C0635B6803F0E5
:100E60003F035A1C134B1B68B3FBF2F34FF4FA62B7
:100E7000B3FBF2F3104A43F0C05313601022074B48
:100E8000C3F880211A6001F04BF820460BF0C4FB38
:100E900085F3108885F3138838BD00BF00E100E0BA
:100EA00000E80042000700400013004000630242D7
:100EB000000001400000002000040040014B1868C1
:100EC000704700BFC0060020034B5868C0F30800FD
:100ED000003818BF0120704700ED00E008B5024659
:100EE000FFF7F2FF20B17E21064A074800F0C4F95F
:100EF000064908680B681B1A934200D308BD30BF2F
:100F0000F8E700BFEFEF10000AF01000C006002065
:100F1000024A136801331360704700BFC006002007
:100F200037B50E4CE56AA847C20701900ED4019B65
:100F3000DB060DD4636A984768B1019B13F0200F5C
:100F400014BF6FF00800002003B030BD30BFEAE7E7
:100F50006FF00700F8E76FF00600F5E750F11000BA
:100F600038B5184C237813F004032AD1164DC4E980
:100F70000133C4E9033363611448AB68984720B177
:100F80006021134A134800F077F902202B69984733
:100F9000014610B163210E4AF4E70320AD6AA84769
:100FA00010B167210A4AEDE72178022001F0030120
:100FB000A84710B16A21064AE4E7237843F0040306
:100FC000237038BD0800002050F1100019101000E7
:100FD00076F010008EF0100010B50B4C0020236945
:100FE000984720B17421094A094800F045F9E3689F
:100FF000984710B17721054AF6E7064B1A7860F357
:1010000082021A7010BD00BF50F1100076F010007F
:101010008EF0100008000020030670B5054601D5CB
:10102000FFF7DAFF064C63694BB1064B5B6A9847E2
:101030006369C4E90305201DBDE87040184770BD11
:101040000800002050F1100037B5124D0446FFF79C
:1010500087FFEB6A9847C30718D40F4B012C1A7807
:101060000FD0022C0FD0012161F3010202201A706F
:101070001978AB6A01F00301019303B0BDE8304079
:1010800018470221F0E742F00302EFE76FF001009A
:1010900003B030BD50F11000080000202DE9F743E7
:1010A000DFF84C8004460D4616461F46DDF82890B2
:1010B000FFF756FFD8F82C30984710F0010012D1F6
:1010C0000C49D8F81830C8600193C1E90145C1F84E
:1010D00014903B46324629462046DDF804C003B052
:1010E000BDE8F04360476FF0010003B0BDE8F08356
:1010F00050F11000080000202DE9F74306460F4686
:1011000090469946FFF7E0FE054638B19F210C4A0C
:101110000C4800F0B1F802340FD130BF4B464246C4
:10112000394630460095FFF7B9FF04460028F2D152
:1011300003B0BDE8F043FFF7F3BE03B0BDE8F083B2
:10114000EFEF10008EF010002DE9F743DFF84C8030
:1011500004460D4616461F46DDF82890FFF700FFAF
:10116000D8F82C30984710F0010012D10C49D8F86B
:101170001430C8600193C1E90145C1F814903B46A1
:10118000324629462046DDF804C003B0BDE8F043EE
:1011900060476FF0010003B0BDE8F08350F110002C
:1011A000080000202DE9F74306460F469046994671
:1011B000FFF78AFE054638B1C9210C4A0C4800F0F9
:1011C0005BF802340FD130BF4B46424639463046B9
:1011D0000095FFF7B9FF04460028F2D103B0BDE83F
:1011E000F043FFF79DBE03B0BDE8F083EFEF1000C2
:1011F0008EF010000228F8B527D8174A431C145C5B
:10120000164A32F81070164A32F81060154ADBB2EE
:1012100082F8BF3002F1077202F54432D2F8AC3CDA
:10122000012BFBD1104A114D13693C4323F00F03EE
:1012300043F00903136102232B6001F081F90C4B89
:101240000C4A6C60EE601A60F8BD40F2017600272F
:1012500007240623DAE700BFFEF0100002F11000B9
:1012600008F11000000001400005004000010040AE
:101270000014004081000100032383B506460F4699
:101280009046184CDFF86090A360184B42461868EF
:10129000009733461649C0680AF09EFAA36813F017
:1012A0003C0F02BFA36843F00103A360D9F800001C
:1012B000112803D900231138DB6A9847A36813F07B
:1012C0003C0F02BFA36823F00103A360D9F80050CC
:1012D0006D00112DD9D90023A5F11100DB6A9847C3
:1012E000D3E700BF000700400000002058000020A6
:1012F0000EF11000800000F18040D0F8003713F0AC
:101300003C0F02BFD0F8003743F00103C0F80037AC
:101310007047800000F18040D0F8003713F03C0F98
:1013200002BFD0F8003723F00103C0F80037704740
:10133000064B82B01868002382B262F30F03000CE0
:1013400060F31F43184602B0704700BF4CF1100015
:1013500000207047014B5868704700BFD40600203A
:10136000014B5868704700BFC4060020002808DB06
:101370000123420900F01F0003FA00F0014B43F87B
:101380002200704700E100E000280DDB0122430944
:1013900000F01F0002FA00F0044A203342F8230054
:1013A000BFF34F8FBFF36F8F704700BF00E100E0C6
:1013B000002809DB0122430900F01F0002FA00F0B7
:1013C000024A603342F82300704700BF00E100E0AA
:1013D000112803D900231138DB6A18477047000031
:1013E0002DE9F843794D2E7AB40740F1E5800138B4
:1013F000032800F2E180DFE800F0021953A46B68D3
:10140000D80700F1DC80724B7248734C5A69D206DF
:101410000AD51A68090201F4FE4122F4FE42114382
:1014200019600020BDE8F8834460EFE76B68DB07D4
:1014300000F1C5800139022900F2C480674B53F8DE
:101440002170674B1C68204609F08EF980463846AB
:10145000894609F089F90022624B09F0FFF902463A
:101460000B464046494609F06BFC002840F0AA8034
:1014700007EB4707B4FBF7F4554A013C554956487A
:10148000EC605369DF0609D5136846F0040623F4BF
:101490007F0343EA044414602E72C2E74860F0E719
:1014A0004B4A1B201368092423F002031360FFF743
:1014B0006BFF41F211124C4B1A6703225A611A61F9
:1014C000474B1E68494BB6FBF3F60520FFF712FFAA
:1014D0003046FFF77DFF0520FFF71BFF3046FFF783
:1014E00077FF601E10F0FF04EFD10420FFF711FF1B
:1014F0003046FFF76DFF0520FFF7FCFE3046FFF793
:1015000067FF43F210420420FFF7F4FE364B1B2026
:101510005A6143F211421A6140F205421A672C4A9D
:10152000136843F002031360FFF742FF1B20FFF72D
:101530001DFF2B68002B3FF474AF4FF48070984769
:101540006FE76B68D9077FF56CAF1B20FFF71CFFB7
:101550006B6813F0020F1E4B25D008221D491E4850
:101560005A605A6952051CD50021214B1B20C3E942
:101570000011996019736B6861F300036B606B680D
:1015800061F3C3036B606B6861F304136B606B689A
:1015900061F345136B60FFF70BFF1B20FFF7E6FEBF
:1015A0003FE74860DDE71A6822F001021A60012275
:1015B000104BC3F89420D7E74FF0FF3032E76FF0BD
:1015C00001002FE76FF003002CE700BFC4060020E6
:1015D000000B00400003004011E2B10240F1100096
:1015E0000000002000000A4000070040A086010023
:1015F000D406002000600142024610B518B311B3B2
:10160000154B187A800721D5586810F0010020D1B9
:1016100058605C6844F001045C605C6860F34104FD
:101620005C605C6844F004045C600C4BC3E900102F
:101630009A600B4A136823F47F0323F0010343F0FD
:101640000103136010BD6FF00400FBE74FF0FF30A3
:10165000F8E76FF00100F5E7C4060020D40600208B
:10166000000B0040024610B518B311B3154B187AA1
:10167000800721D5586810F0010020D158605C68BF
:1016800044F001045C605C6860F341045C605C6889
:1016900060F382045C600C4BC3E900109A600B4A53
:1016A000136823F47F0323F0010343F00103136065
:1016B00010BD6FF00400FBE74FF0FF30F8E76FF06C
:1016C0000100F5E7C4060020D4060020000B00400E
:1016D00070B50446002930D0002A2ED020F40040F6
:1016E0007F282AD8194D287A400729D5686810F034
:1016F000010028D168606E6846F001066E606E6871
:1017000046F002066E606E6846F004066E60104E8B
:10171000C6E900200F4A347373731368B160E96837
:1017200023F47F03640043EA0143E4B223F001039E
:1017300044F001041360146170BD6FF00400FBE716
:101740004FF0FF30F8E76FF00100F5E7C406002026
:10175000D4060020000B004070B5054600292DD0AE
:1017600062B320F400407F2828D8194C207A400723
:1017700027D5606810F0010026D16060666846F0E9
:1017800001066660666846F002066660666860F399
:10179000820666600F4EC6E900200F4A35737373E8
:1017A0001368B160E16823F47F0343EA01436D00ED
:1017B00023F00103EDB21360156170BD6FF00400FA
:1017C000FBE74FF0FF30F8E76FF00100F5E700BFEF
:1017D000C4060020D4060020000B0040014610B5CE
:1017E00020B1022812D06FF0030010BD1B20FFF7BC
:1017F000CBFD1B20FFF7DCFD124B1960124B1A7A50
:10180000596022F002021A720020EEE70E4C217A93
:10181000CB0714D511F00201F6D11B20FFF7C8FD4C
:101820001B20FFF7A3FD0A22064B1A600122074B7B
:10183000C3F89420237A43F002032372E4E74FF0C5
:10184000FF30D2E7000B0040C406002000600142D8
:101850003F22054B00205A611A6141F211121A67AA
:10186000024B18721860704700070040C406002041
:1018700010B50B4A137A13F001030FD143F2104451
:1018800008494C6143F211440C6140F205440C6775
:10189000C2E90133D360012310601372002010BD30
:1018A000C40600200007004070B4634B63495A68C7
:1018B00012F0020FC2F3400059D04A695C68E60793
:1018C00034D515060BD55A6842F020025A605C4A9E
:1018D000C2F89400C0201B6843B370BC184754057D
:1018E0000CD5584906C98A4203D0002A14BF0220E9
:1018F00012205A686FF300025A60ECE756071DD5B4
:10190000550615D54F4BD3E9001201398A424C498F
:1019100002F101042ABFC1F88400C1F88000C1F8B7
:101920008C004649886899685C60885470BC704730
:101930009405FBD5424BC3F88000F7E7D007F5D4F8
:10194000404AD2E90040A04204D29568461C566045
:10195000285C886051688C42E8D1517B0120384A6C
:1019600011B1C2F88000C4E7C2F89000DEE7486910
:101970005A68D207DAD5060609D501215A688020AF
:1019800042F020025A602E4AC2F89410A3E710F0E9
:1019900008051FD05A6800F0040402F004029442C3
:1019A0004FF00101264A12D0C2F88010002110F039
:1019B00002001FBF5A68202042F008025A60214AE4
:1019C0008C42516014BF04220822104383E7C2F8FE
:1019D0008410ABE710F4007420D01A4AD2E90064F6
:1019E000B44213D2450709D40120154BC3F8800037
:1019F0008968936820185060195597E7C00795D4F7
:101A00009368601C50601B5D8B608FE701200C4A5F
:101A1000C2F884005A6865F300026DE7420585D577
:101A2000084A5068126890420CBF012082205A6810
:101A300064F3000260E700BFC4060020000B004012
:101A400000600142D40600200022084B1A719A68F7
:101A5000074B9343074B02BF5A6842F020025A607B
:101A60005A6822F4E0725A60704700BFE406002012
:101A70000100100000080040F0B50D4CA16809B944
:101A80006069F0BD00220B4B10465B6803F01F033A
:101A90000133DE083346D5B29D4202D33144A16002
:101AA000EFE78D5CD700BD4028430132F3E700BF6C
:101AB000F00600200008004070B5184D2B79F3B1F6
:101AC000174B1A69920703D41C6914F0010406D05D
:101AD000012202246A711A6942F003021A61114A52
:101AE0001369116801338B42136109D2FFF7C4FFF8
:101AF0000B4B98605A6842F480725A603CB970BDD2
:101B0000D2689342FAD1FFF79FFF44F001042B689B
:101B1000002BF4D02046BDE870401847E4060020B2
:101B200000080040F00600202DE9F041214C237907
:101B3000002B3CD0204BD9681A68914237D21F4AFB
:101B40001169890703D4106910F0010006D0012142
:101B500002206171116941F003011161174A59684E
:101B6000D76889B9DA68196801328A42DA601CD10B
:101B70001B699A4219D1FFF767FF40F00100236803
:101B8000ABB1BDE8F04118470021526802F01F02D6
:101B90000132D2088A42E5D05E68751C5D60CD00D6
:101BA00027FA05F535700131F4E70028E7D1BDE8E3
:101BB000F08100BFE4060020F0060020000800408D
:101BC000014B188880B27047080700202022044B80
:101BD000C3F88020BFF34F8FBFF36F8F704700BFF4
:101BE00000E100E01B4B37B5821E9A4204D9532115
:101BF000194A1A48FFF740FB194D297841BB4FF4A9
:101C0000FA6344086343174A009317484FF6FF737B
:101C100000F0D0FB154B164A5B68126803F03F03D7
:101C20000133B2FBF3F3134A934203D04FF49E7196
:101C3000114ADEE72022114B44F0C0545C60104B87
:101C40000220C3F880211A6000F06AF901232B708A
:101C500003B030BDFCFFFF0180F11000D5F1100092
:101C600030070020C11B10000C07002000010040BD
:101C70000000002040420F0047F210000004004026
:101C800000E100E008B5064B1B7843B1022000F0EC
:101C900071F9FFF79BFF2022024BC3F8802108BD9A
:101CA0003007002000E100E010B50446B8B10C4B4D
:101CB0001B781BB94FF47A70FFF794FFFFF786FF8C
:101CC000BFF34F8FBFF36F8F00232046C4E9083363
:101CD0002385044900F07EFB2022034B1A6010BDCF
:101CE000300700200C07002000E100E010B5FFF7EE
:101CF0006DFFBFF34F8FBFF36F8F00F079FB054B84
:101D00001C681CB9FFF7BEFF034B1C702022034B5D
:101D10001A6010BD0C0700203007002000E100E031
:101D200010B51446FFF752FFBFF34F8FBFF36F8F0D
:101D30000023202280F82830024BC0E908141A60E2
:101D400010BD00BF00E100E010B5FFF73FFF044603
:101D5000BFF34F8FBFF36F8F00F06EFB0023202285
:101D600084F82930014B1A6010BD00BF00E100E08B
:101D700010B5FFF72BFF0446BFF34F8FBFF36F8FF4
:101D800000F088FB0023202284F82930014B1A60E0
:101D900010BD00BF00E100E008B5FFF717FFBFF37B
:101DA0004F8FBFF36F8F00F027FB2022014B1A608B
:101DB00008BD00BF00E100E010B5FFF707FF0446D3
:101DC000BFF34F8FBFF36F8F00F01CFB0023202267
:101DD00084F82930014B1A6010BD00BF00E100E01B
:101DE00000F01CBB38B50125114A138801339BB2A2
:101DF0001380104B1C6804B938BD236A93B194F862
:101E000029307BB9237F6BB1204600F02BFB48B112
:101E1000D4E9083194F8282084F8295022B11846D2
:101E2000FEF7BAFF6468E6E708469847FAE700BF9E
:101E3000080700200C07002000280DDB01224309C1
:101E400000F01F0002FA00F0044A203342F8230099
:101E5000BFF34F8FBFF36F8F704700BF00E100E00B
:101E600010B50D490B79ABB10C4A53695068013379
:101E7000834253610AD100231D200B71FFF7DCFF61
:101E80000B683BB1BDE8104001201847D268D25C16
:101E9000034B5A6010BD00BF3407002044070020E8
:101EA000000C004070B50F494B79CBB10E4B1A694D
:101EB0001868824214D20D48551C846898681D61C8
:101EC00084541A691B689A420AD100231C204B7162
:101ED000FFF7B2FF0B681BB1BDE870400220184746
:101EE00070BD00BF3407002044070020000C0040F4
:101EF00030B50025800000F18040C0F80056039DF9
:101F000092B2C0F82056049D42EA034221F40141F6
:101F1000C0F84056C0F86026C0F8001630BD00007A
:101F2000C30705D56FF00102104B1A6001225A60F9
:101F3000810707D56FF001020C4BC3F88020012206
:101F4000C3F88420420705D56FF00102084B1A60E0
:101F500001225A60030707D56FF00102044BC3F852
:101F600080200122C3F88420704700BF0082004215
:101F700000830042C30742BF01220A4B1A60810757
:101F800042BF0122074BC3F88020420742BF012213
:101F9000054B1A60030742BF0122034BC3F88020A0
:101FA000704700BF0082004200830042114A03468E
:101FB000116810B509B910491160002B10680DDDCA
:101FC00003330E4923F00303C4188C420ED909F0E1
:101FD000FDFB0C2303604FF0FF3010BD06D0033B28
:101FE000054923F00303C4188C42F0D30344136063
:101FF000F3E700BF5C070020D43F0020007C0020F6
:102000004FF0FF325B4D5C4E5C4BAC1B83B5A408BC
:10201000C3F880200121C3F88420C3F88820C3F8C6
:102020008021C3F88421C3F8882181F3108800221D
:1020300082F31388524F5348874200F29880082059
:10204000DFF844C1CCF80810C3F888014F4B504862
:10205000C3F8242BC3F8202BC3F8002B4D4A4E4B5A
:10206000C0F8D0709B1A9B08C0F8D420C0F8D830B4
:10207000CCF80410002C69D04FF480723F4B4749D4
:10208000C3F880214FF4F852454BC3F8E020A3F287
:10209000FC5300930023224618460196FFF728FFC1
:1020A000384B9F4252D93C4B3A48DA1C121AC11E97
:1020B00022F00302994288BF0022314909F0AEFBA9
:1020C000FCB14FF4807236482C4BD0F8E01011F080
:1020D000E0013FD1C3F88021C3F88020BFF34F8FC8
:1020E000BFF36F8F2F4B1B69012B0AD12E4A2F484C
:1020F000921B22F00302854238BF0022033009F010
:102100009BFB0020FFF752FF0026294D294C641B42
:10211000A410B44221D10026274D284C641BA410E2
:10212000B4421FD1FEF756FAFEE79A6030BF086846
:102130000028FAD1C3F88821C3F88820BFF34F8F55
:10214000BFF36F8FCB68012BBAD1ACE708220E49E1
:102150000A4BECE71A6030BFB7E755F8043B9847E5
:102160000136D6E755F8043B98470136D8E7002CEE
:1021700099D081E7D43F00202802002000E100E050
:1021800010251100FEFF150000B9004200A5004215
:102190000005004004000020280200202B0CCA008B
:1021A0000006004000DC0042D73F0020250200204E
:1021B000700110007001100070011000700110001B
:1021C000FEE7FEE7FEE7FEE7FEE7FEE7FEE7FEE7E7
:1021D000FEE7FEE7081A013810405208013290422B
:1021E0002CBF002001207047484010420CBF012046
:1021F0000020704710B50B1A5408134001349C425C
:102200003CBF431A1340FFF7E5FF08B1584210BD29
:102210001846FCE708441040704788424FEA5202D3
:102220008CBF431A0B1A0132934204D9884294BFDF
:1022300000200120704788422CBF002001207047F9
:10224000904288BF531C10B584BFB0FBF3F403FB6E
:1022500014008A423EBF0132B1FBF2F302FB1311BC
:10226000431A5842584110BD0023D0E90021C0E96B
:10227000003362B11368834207D1116070475A6816
:10228000824201D1596070471346002BF7D1704745
:10229000036810B50446D3E907209047012323774C
:1022A0000023A060C4E9053310BD88424FEA520301
:1022B00010B503F101038CBF441A0C1A9C4201D2E1
:1022C000401A04E0884203D91144081AC04310BDE3
:1022D00001321044F4E7002905DD121A914208DDAD
:1022E000881A0138704705D04B4298423CBF0132F2
:1022F000801808447047000000230161013151B982
:10230000012B0ED80B4B03600B4B43600B4B8360D0
:102310000B4BC360704701F001021344DBB2490864
:10232000EDE7084B0360084B4360084B8360084BA4
:10233000EFE700BFE9211000D5211000F5211000C2
:1023400015221000412210001B221000AB221000A9
:10235000D722100038B515468B680A690446816893
:102360002846984700280FDD2368A1699B69A5606E
:1023700043430648421A934222BF6269091A013256
:102380000B4428BF6261A36138BD00BF00CA9A3BFD
:1023900038B5037F044663B10568D5E9073098472F
:1023A000237F02462BB12046291DBDE83840FFF7A8
:1023B000D1BF38BD70B50D4616461946044640B12A
:1023C000002340F8043BFFF797FF049B2562C4E914
:1023D000063670BD59B150B10023C0E90233C0E9DF
:1023E0000433836103770B680160436008607047C2
:1023F00008B1FFF739BF704718B103680BB1FFF799
:1024000047BF704710B5044638B103682BB1037F4E
:102410001BB1FFF7BDFF0023237710BD38B50D4674
:10242000044640B139B103680BB1FFF7B1FFD4E9FD
:10243000050185E8030038BD38B50C46054668B18E
:1024400003685BB1FFF724FF4FF47A73B4FBF3F139
:1024500003FB1144E96002494C432C6138BD00BFC5
:1024600040420F0010B5044608B9002010BD0368B3
:102470000BB1FFF78DFF6269E3689A4207D8F4D188
:10248000A0692369984234BF00200120EEE70120B3
:10249000ECE7000010B50446B0B10368A3B1037FB8
:1024A00093B1FFF775FF6369E268934204D813D1D3
:1024B000A069216988420FD39B1A2169A2696361CF
:1024C0008A4202D3521AA26110BD013B6361044BE0
:1024D00013445B1AA361F7E700236361FAE700BFC7
:1024E00000CA9A3B0023F0B585B00E46174604217A
:1024F0006A469B6D984740B96C46042354F8045BC8
:10250000EAB2B24203D12D0C3D8005B0F0BD013BD3
:1025100013F0FF03F2D10120F7E70000054A064956
:102520001368A3F5C343283B8B4284BF034B13605E
:10253000704700BF00000020580ADC02404B4C00EE
:10254000464B37B51D68464C05F007056A1E032A41
:1025500021D8DFE802F002141B1E4FF40043236071
:10256000404A236893423D4A36D8002313713E49BE
:102570000A6922F00F0213430B6103B030BD3B4BDD
:1025800093F8BF203A4BB3FBF2F3E8E75B785A1CB1
:10259000F8E79B78FBE7374B0DF10602196A03F168
:1025A000007303F51433D3F84831C1F30521012B2F
:1025B0000BD13148FFF796FF28B94FF47A72BDF876
:1025C00006305343CBE72D4BC9E72D48FFF78AFF71
:1025D0000028F2D02B4BC2E72B498B4203D80123B2
:1025E00013710023C3E729498B4201D80223F7E77F
:1025F00024498B4203D8042313710223B7E72449EB
:102600008B4203D8072313710323B0E721498B4280
:1026100003D8092313710523A9E71F498B4201D869
:102620000B23F7E715498B4206D80F23002D1371B2
:102630000CBF072306239AE718498B4203D81323BC
:102640001371072393E716498B4295BF17232F2356
:102650001371137194BF0823092388E70001004018
:102660000000002040420F00000500400000014033
:10267000006CDC0200130040B01808000024F400D5
:1026800090180800404B4C0080841E00C0C62D00EE
:1026900000127A0080969800001BB700002D3101CF
:1026A00000366E01002337B5084C85688DF8073079
:1026B00020600DF10702012390214078A8479DF882
:1026C000072023681A7003B030BD00BF60070020E8
:1026D0001346074A30B40446106830B145680A46CC
:1026E000AC46214630BC4078604730BC704700BFE4
:1026F000600700201346074A30B40446106830B122
:1027000085680A46AC46214630BC4078604730BCFC
:10271000704700BF60070020002373B50C4D0446CE
:1027200028688DF8073088B1866801233221407807
:102730000DF10702B04748B928688DF8074001231A
:102740004468322140780DF10702A04702B070BD05
:1027500060070020002337B5ADF80430074B04466E
:10276000186840B1022385683821407801AAA8473B
:10277000BDF80430238003B030BD00BF60070020E7
:10278000002337B58DF80730074B0446186848B169
:10279000012385683A2140780DF10702A8479DF88A
:1027A0000730237003B030BD60070020074A03469E
:1027B00013B5106840B144688DF8073054210123E7
:1027C00040780DF10702A04702B010BD600700205D
:1027D000074A034613B5106840B144688DF80730C6
:1027E0006421012340780DF10702A04702B010BD1B
:1027F00060070020002337B5ADF80430074B0446CE
:10280000186840B1022385687021407801AAA84762
:10281000BDF80430238003B030BD00BF6007002046
:10282000002337B58DF80730074B0446186848B1C8
:1028300001238568902140780DF10702A8479DF893
:102840000730237003B030BD60070020002337B588
:102850000193074B0446186840B1042385680DEBCB
:10286000030297214078A847019B236003B030BD45
:1028700060070020074A034613B5106840B144685A
:102880008DF807309B21012340780DF10702A04706
:1028900002B010BD60070020002302222DE9F04F96
:1028A00093B08DF80C300493ADF80E308DF82830CD
:1028B0008DF829308DF82A308DF82B304D4B064697
:1028C00018680D468DF80D2000286ED0334605AAF5
:1028D00006F11007144618685968083303C4BB4250
:1028E0002246F7D11B7823709DF814302A2B75D11E
:1028F0009DF81530652B71D19DF817400DF10E0034
:10290000C4F3C104FFF776FF012C51D142F2121338
:10291000BDF80E209A4267D1069B01200193FFF774
:10292000A9FF012204460DF10D013420FFF7D0FE6E
:102930000122044403A99420FFF7CAFEE4B2044430
:102940000122952003A9FFF7C3FEE4B2204410F052
:10295000FF041BD11027103D4FEA5519A6F1040AB8
:10296000C5F38205A1450CBF284608200023F91CA9
:102970004FEA8008434522D120B1424696200AA959
:10298000FFF7A6FE0134A1454744EBD204A8FFF7A8
:102990005DFF049B019A934229D1012234200DF15D
:1029A0000D018DF80D20FFF793FE13B0BDE8F08FF9
:1029B000032C16D142F6AD53BDF80E20AAE70DF157
:1029C000280C72189C440AEB010E12F801B99645C6
:1029D0000CF801BBF9D104310433CBE76FF00200EE
:1029E000E3E76FF00400E0E76FF00300DDE76FF06E
:1029F0000500DAE76007002070B504460D460021A7
:102A000086B0102202A88DF8071008F015FF2046A6
:102A1000FFF7CCFE2846FFF7DBFEFA24264E0DF129
:102A20000700FFF7ADFE9DF80720AA420AD03368E1
:102A3000802A0CBF322001201B69013C984714F00A
:102A4000FF04ECD1306802AA846810233B2140784F
:102A5000A0471A4B9DF808201A709DF809205A705B
:102A60009DF80A209A709DF80B20DA709DF80C20D2
:102A70001A719DF80D205A719DF80E209A719DF8DB
:102A80000F20DA719DF810201A729DF811205A72E9
:102A90009DF812209A729DF81320DA729DF8142086
:102AA0001A739DF815205A739DF816209A739DF895
:102AB0001720DA7306B070BD60070020640700209D
:102AC00070B506460D4614461F210120FFF794FFFE
:102AD0000A4B1A8832805A8872801A793271B3F898
:102AE00005202A80B3F807206A805A7A2A715A8909
:102AF00022809A899B7B6280237170BD64070020CD
:102B00002DE9FF4100232A4E074634680D468DF813
:102B10000730002C45D0274B5C211A788DF808200F
:102B20005A788DF809209A788DF80A20DA788DF88D
:102B30000B201A798DF80C205A798DF80D209A798E
:102B4000DB798DF80E208DF80F300823D4F804803F
:102B50000DEB03026078C04704463846FFF726FEB7
:102B600004442846FFF734FEFA27E4B2044464B272
:102B70000DF10700FFF704FE9DF807200444AA4268
:102B80005FFA84F864B20CD03368802A1B690CD1D8
:102B900032209847A8F1030464B2013F17F0FF0701
:102BA000E6D1204604B0BDE8F08101209847F4E763
:102BB0006007002074070020094B02881A70120A6F
:102BC0005A7042889A70120ADA7082881A71120A50
:102BD0005A71C28803209A71120ADA71FFF790BF06
:102BE00074070020094B02881A70120A5A70428832
:102BF0009A70120ADA7082881A71120A5A71C2889F
:102C000003209A71120ADA71FFF77ABF7407002065
:102C1000F8B5074603250024067B437B103606EBF8
:102C2000032601F04BFB31463846FFF735FE0444DE
:102C300064B21CB1013D15F0FF05F2D12046F8BD8C
:102C40002DE9F34705461F2D8A4617461E469DF877
:102C50002800BDF82C90BDF8308006D80D4401281E
:102C6000EDB205D0FF2804D028B16FF0010024E0B8
:102C70002846FFF751FD403D0446E9B2BAF1000F86
:102C80000ED0BAF1200FF0D16846ADF80070ADF863
:102C90000260ADF80490ADF80680FFF7A3FF0AE0EC
:102CA0006846ADF80070ADF80260ADF80490ADF87C
:102CB0000680FFF781FF204440B202B0BDE8F087F4
:102CC00032292DE9F84F81468B461546984641D961
:102CD000224F3B886BBB3846FFF73CFD06463C88DD
:102CE000002C33D0DFF878A0BAF80000231A9B45F7
:102CF00021DB2B803223B0FBF3F203FB12004946A9
:102D00002A88C0B2FFF7F6FCBAF800202B880644E8
:102D100013449AB23B8876B29B1A9BB2AAF8002061
:102D2000A8F8003013B9AAF800303B803046BDE85F
:102D3000F88F0026D3E70BEB0003E31A322BDDBF3D
:102D4000333C241A2C80A5F800B0D3E72C80A8F8D7
:102D50000040EBE76FF00106E8E700BF7E070020C8
:102D60007C070020F8B5054610460A880E461C462A
:102D7000002A00F0D1812B681B783F2B16D903F174
:102D80000B01C9B2092902D96FF00100C5E1F53B79
:102D9000092BF9D8DFE813F03901DF00DF00280143
:102DA0005E015E015E01DF00DF0028013F2BEBD8F2
:102DB00001A151F823F000BFB92E1000112F10000F
:102DC000112F1000112F1000112F1000572F10007D
:102DD000812F1000732F1000572F1000112F10009B
:102DE000112F1000C52E1000572F1000732F100048
:102DF000AB2F1000C52E1000AB2F1000A72F100016
:102E0000A72F1000572F1000C52E10003D2F1000C7
:102E1000A72F1000A72F1000A72F1000A72F10001A
:102E20008330100083301000833010008330100096
:102E300083301000572F1000892D1000112F100023
:102E4000112F1000112F1000112F1000572F1000FC
:102E5000812F1000732F1000572F1000112F10001A
:102E6000112F1000C52E1000572F1000732F1000C7
:102E7000AB2F1000C52E1000AB2F1000A72F100095
:102E8000A72F1000572F1000C52E10003D2F100047
:102E9000A72F1000A72F1000A72F1000A72F10009A
:102EA000BB301000BB301000BB301000BB30100036
:102EB000BB301000572F1000002323702B681B78A5
:102EC000037018E09D4B5B7893423FF65DAF0123A2
:102ED00023702B681A780270B3F801204280B3F88F
:102EE00003208280B3F80520C280B3F80720028156
:102EF000B3F8093043812B6819783F2900F2F98033
:102F00008F4B53F82130002B00F0FB809847F8E0FE
:102F10008A4B9B7893423FF637AF022323702B688E
:102F20001A780270B3F801204280B3F8032082803F
:102F3000B3F80520C280DB790372DCE77F4BDB78D6
:102F400093423FF621AF032323702B681A78027057
:102F50005B784370CFE7794B1B7993423FF614AF10
:102F6000042323702B681A780270B3F80130438071
:102F7000C1E7724B5B7993423FF606AF0523F0E75A
:102F80006E4B9B7993423FF6FFAE062323702A686F
:102F900013780370D37891781B04527843EA0123A5
:102FA00013434360A7E7072387E7644B1B7A9342E9
:102FB0003FF6EAAE082323702B681A780270B3F844
:102FC00001204280B3F803208280B3F80520C2803C
:102FD000B3F807200281B3F809204281B3F80B202F
:102FE00082815B7B837386E7544B5B7A93423FF627
:102FF000CBAE092323702B681A7802705A7842707E
:103000009A788270DB78C37075E74C4BDB7A934219
:103010003FF6BAAE0B2323702B681A7802705A78E9
:1030200042709A788270DA78C2701A7902715A798D
:1030300042719A798271DA79C2711A7A02725A7A75
:1030400042729A7A8272DA7AC2721A7B02735B7B5C
:10305000437350E7394B9B7A93423FF695AE0A2370
:1030600023702B681A780270D3F801204260D3F8DD
:1030700005208260D3F80920C260D3F80D300361C7
:1030800039E70E3BDBB22D4F23703288FB5C9A424E
:10309000FFF47AAE0022D5F800C09CF8003003702F
:1030A000217893B2795C013201398B42BFF623AFAC
:1030B0001CF8031003445970F2E72E3BDBB21F4F9C
:1030C00023703288FB5C9A42FFF45EAE0022D5F892
:1030D00000C09CF800300370217893B2795C013213
:1030E00001398B42BFF607AF1CF803100344597037
:1030F000F2E70B1DDBB2012B10D8124B1B6803B19A
:10310000984723780D4AD15C2B680B442B602378B9
:10311000D25C33889B1A33800020F8BD01F10A038A
:10312000DBB2012B02D8074B5B68E8E7FE2901D030
:10313000F829E6D14178044BE3E600BF30000020D7
:103140000008002000090020800700200378F63BDB
:10315000072B1AD8DFE803F00E17191919190410F4
:103160000B4A136840881B0C1B04034313600B605D
:1031700000207047074AF4E7054A1388418843EA6C
:1031800001431360F4E7034AF7E76FF0010070476B
:10319000080900200C0900202DE9FF411E460023EC
:1031A000082E0F468DF8070011468DF80F3002D813
:1031B00016B900243AE0082632465C20FFF788FA68
:1031C0009DF8073080460F2B34D90F238DF8073038
:1031D0009DF80720360106F0700616430DF1070131
:1031E000012254208DF80760FFF772FA47F080073C
:1031F00004463846FFF7ECFAFA250444444464B226
:103200000DF10F00FFF7BCFA9DF80F300444BB42EC
:10321000E6B264B20AD0802B0FD1322001F04BF815
:10322000F41E64B2013D15F0FF05E9D1204604B05B
:10323000BDE8F081002BCBD1BBE7012001F03BF8CA
:10324000F0E700000346F7B50020022BCDE90000AF
:1032500018D8194A0F26D5566B461A464F1C11F935
:1032600010402CB1012C03D001340BD11E7000E0B2
:103270001C70042814D017F9104054B1012C04D04C
:10328000013409D06FF0020014E01C7844F01004FF
:103290001C7001300133E2E71C7864F00F04F7E79B
:1032A00005F1200108230120C9B2FFF775FF00EAEC
:1032B000E07040B203B0F0BD231B1100F0B54378BD
:1032C0000D4613F0400689B003F03F0400F10201FF
:1032D0000BD1224601A808F0A1FA08AB1C4404F85F
:1032E0001C6C01A8A84709B0F0BD0846002101AE3A
:1032F000CBB29C4206D808AB03EB4404002304F88D
:103300001C3CEEE710F8013B013103F0F0071A090D
:10331000902F03F00F038CBF37323032092B8CBF54
:1033200037333033327073700236E1E73F280DD8FF
:1033300011F0DF0F0AD100F01F000144054BC9B2A4
:1033400053F8210010B943F8212070476FF00100B5
:10335000704700BF0008002010F0DF0F0BD1A0F174
:1033600020035842054A584152F820301BB942F810
:103370002010184670476FF00100704700090020C8
:103380001128034606D8054A52F8200010B942F821
:10339000231070476FF00100704700BF80070020C6
:1033A00048B1836C3BB1C36C2BB1006DB0FA80F0B7
:1033B0004009404270474FF0FF30704773B50246F6
:1033C0000846FFF7EDFF0C46054640BB12F0800FA4
:1033D00014BF00231023CA789A4220D0CB708E6C81
:1033E0000123F32160780DF10702B04784F85400FF
:1033F00098B99DF80720E37822F0100203F010033B
:1034000013438DF8073073210123E66C60780DF1CA
:103410000702B04784F8540008B16FF00105284650
:1034200002B070BD37B50446FFF7BAFF70B901238B
:10343000F321A56C60780DF10702A84784F85400C9
:1034400030B99DF8073003F01003E37003B030BDCE
:103450006FF00100FAE703788B4284BF017092F8A5
:1034600046304FF0000084BF43F0020382F846303C
:1034700070472DE9F843064618461D46FFF790FFB2
:10348000884691460446A8B9AB783BB929463046F0
:10349000FFF794FF044608B946F080064B464246C3
:1034A0003146AF6C6878B847002818BF6FF0010448
:1034B00085F854002046BDE8F8832DE9F0471C4606
:1034C0000F4600218AB00646904601A824220091AA
:1034D00008F0B2F92046FFF763FFE8B908F1FF33BF
:1034E000122B33D8EA4681461FFA88F81FFA89F36F
:1034F000434514D380B94FEA4802013A93B2E56CD0
:103500009DF8001060780DF10102A847002884F8AA
:10351000540018BF6FF001000AB0BDE8F087A3782F
:1035200016F809503BB928462146FFF747FF16F821
:10353000095005F07F0517F809308AF800508AF81D
:10354000013009F101090AF1020ACFE76FF0030027
:10355000E2E7E02337B58DF80630B62305468DF84F
:103560000730FFF71DFF044670B9AB787BB12B46DF
:1035700001220DF107010DF10600FFF79EFF044641
:103580002B6D0A2098474CB1204603B030BD284629
:10359000FFF748FF04460028F6D1E8E7AB78002B98
:1035A000F2D12846FFF73EFF0446EDE730B58DB077
:1035B0000546FFF7F5FE0446002840F0AF80284698
:1035C000FFF7C7FF0446002840F0A8802B460122E1
:1035D0002946D020FFF74DFF0446002840F09E808A
:1035E0002B78612B40F09D8001460190252202A896
:1035F00008F022F928468DF80340FFF7D1FE044673
:10360000002840F08B802B461922892001A9FFF762
:1036100030FF044638B92B461022E1200DF11D0180
:10362000FFF727FF0446BDF825309DF81F10EB82F9
:10363000BDF805302B839DF80730AB76BDF8093017
:10364000AB83BDF80B30EB839DF80D3085F820304F
:10365000BDF80F306B84BDF81130AB849DF8143089
:1036600085F826309DF8133085F82730BDF81730DF
:103670002B85BDF819306B859DF81B3085F82C30F3
:103680009DF81E3003F00F0242EA01122A819DF8D4
:103690001D201B0943EA02136B819DF820302B7318
:1036A0009DF821306B739DF82230AB739DF8233069
:1036B000EB739DF824302B749DF829306B74BDF8A2
:1036C00027306B829DF82A302B7514BB2B460122C4
:1036D00002200DF10301FFF7CCFE9DF803300446F4
:1036E000C3F3011385F8343098B92B4601220DF14C
:1036F0000301FFF7BEFE9DF80330044685F8353020
:1037000038B92B46012204200DF10301FFF7B1FE69
:1037100004469DF903301B1185F8363020460DB064
:1037200030BD6FF00204F9E7742337B504468DF815
:103730000730FFF735FEA0BB054623460122742063
:103740000DF10601FFF795FEA0B99DF8063013F0C4
:10375000030511D023F003038DF806300122234620
:103760000DF106010DF10700FFF7A7FE0A20236DFA
:103770009847E2E7002DE0D194F844208AB19DF803
:10378000063002F0030223F0030313438DF80630E2
:1037900038B9234601220DF106010DF10700FFF7AC
:1037A0008CFE03B030BD0023F0B5064689B0084654
:1037B0000C468DF807300493ADF814300693ADF83D
:1037C0001C30FFF7EDFD002840F0F88016F00803EC
:1037D00091F8447005D181F844302046FFF7A4FFEA
:1037E00007E0012FADF80C0000F0EA8081F84400FA
:1037F000012016F010051ED02246072104F13B00DF
:10380000FFF729FE28B92346012275206944FFF7F6
:1038100030FE94F83B309DF807209B0022F01C02FC
:1038200003F01C031343752201258DF807308DF832
:1038300010208DF81830B30621D52246082104F156
:103840003D00FFF708FE30B92346012270200DF13C
:103850000701FFF70EFE70219DF8073094F83D2018
:1038600023F0080302F00802134308AA2A44013592
:103870008DF8073002F8101C02F8083CEDB2B107D1
:1038800032D02246052104F13900FFF7E4FD30B9BA
:103890002346012274200DF10701FFF7EAFDF2072C
:1038A00009D59DF8073094F8392003F01F0343EA47
:1038B00042138DF80730B3070BD594F83A309DF8D2
:1038C00007209B0003F01C0322F01C0213438DF819
:1038D0000730742208AB2B4403F8102C9DF8072006
:1038E000013503F8082CEDB2710721D522460521D8
:1038F00004F13800FFF7AFFD30B9234601227220F2
:103900000DF10701FFF7B5FD72219DF8073094F81E
:10391000382023F0070302F00702134308AA2A44C1
:1039200001358DF8073002F8101C02F8083CEDB2A2
:1039300016F0C00F39D02246012104F13E00FFF7F6
:103940008AFD60B90A2104F13C00FFF784FD30B91B
:103950002346012271200DF10701FFF78AFD72064F
:103960000BD594F83E309DF807201B0103F010039F
:1039700022F0100213438DF8073033060AD59DF864
:10398000073094F83C2023F00F0302F00F0213439A
:103990008DF80730712208AB2B4403F8102C9DF8EA
:1039A0000720013503F8082CEDB228B923462A4632
:1039B00006A904A8FFF781FD84F8447009B0F0BDA2
:1039C0005A23B1F840208DF80830B2F5C87F28BFDF
:1039D0004FF4C872B1F9123003F5163303F299139C
:1039E00053431422B3FBF2F30A2203F54813B3FB4B
:1039F000F2F391F9112002F544725A4391F904301F
:103A000091F914104B434FF47A7193FBF1F3832136
:103A10001B0203EB620394F834200432B3FBF2F38D
:103A200094F935204A4302F58032B3FBF2F32222A7
:103A3000FA3B53436422323393FBF2F38DF80C309C
:103A4000B4F842308DF80920B3F57C6F1AD23F2BC1
:103A5000C2B200F1010013D803EB8213DBB20025E0
:103A60008DF80D300222234684F83C5003A902A8A9
:103A7000FFF723FD84F8445000287FF4BAAEACE68B
:103A80009B08E4E7FF23EAE713B5184B02461868E2
:103A90009B8891F83A40ADF8043091F839300090A5
:103AA00002A80344044413F8083C14F8080C02ACC0
:103AB000184491F83830234413F8083C40F2AB74B2
:103AC000184441F2B92304FB00334FF47A70B3FB7E
:103AD000F0F301339BB2138091F83E0018B1B1F8B6
:103AE00042100B44138002B010BD00BF281B110010
:103AF0002DE9F04F0746A9B00846FFF751FC0C46E8
:103B00000546002840F087810690CDE90400CDF8F5
:103B10001B000846FFF744FC4FF00A080546002D3D
:103B200040F0808123460F2204A91D20FFF7A1FC4D
:103B30009DF818209DF810C001929DF819200546A7
:103B400002929DF91E009DF81D200CF00F030392B8
:103B50002CF07F0C00F020024CEA020200F0100072
:103B6000024352B27B709DF81130002ABB709DF861
:103B700012E09DF813909DF814309DF815A09DF863
:103B800016B09DF817109DF81E603A7080F24781BC
:103B9000090941EA0B1B4BEA0A3AB4F816B094F94A
:103BA0001AC04FEA4B0BCBEBDA0A4FEAEA724FEA44
:103BB0005A0141EAC27101FB02F0A1FB011202EBC2
:103BC0004002090B41EA02514FEA0C104FEAEC7C2B
:103BD00001FB0CFC121300FB02CCB4F91820A1FB72
:103BE000000182FB0A2A8C44D20A800B40EA8C40F6
:103BF00042EA4A520244226302EB82005210A2F5CA
:103C00007A424FEAA20808FB08F880300012B88018
:103C100094F926104FEAE82C01FB0CF1B4F924C00A
:103C20001B0902FB0CFC43EA0919B4F922304FEAE4
:103C30004C0C0CEBA10C1B0403EBAC0C40F6354315
:103C4000B4F91E104FEA68384A4394F9201049EA43
:103C50000E3E490108FB01F84FEAE80808EB620252
:103C6000A18BCEF5801E9214AEEB2C3C02F50042E7
:103C700003FB0CFC4A43BCF1804F4FEAE232ADBF7C
:103C8000BCFBF2F34FEA4C03B3FBF2F35B00DA1038
:103C90005243B4F92AC0B4F928E052130CFB02F2E3
:103CA0004FEAA30C0EFB0CFC19124FEA6C3C0CEB18
:103CB000223201FB01FC01FB0CF194F82CC00DF148
:103CC000200E0CFB01F102EB614294F9271002EB8C
:103CD000C11203EB22136422BB6094F90E3094F9F5
:103CE0000D10434393FBF2F3434341439B1191FB7C
:103CF000F2F193FBF2F30B44618903F580434B43EC
:103D0000DDE901C141EA0C21B4F808C09B12A1EB26
:103D10000C1194F90CC000FB0CFC9CFBF2FCA1EB19
:103D20006C014B4394F91010DFF810C1484390FB2D
:103D3000F2F299134943E07B891202EBC01212118F
:103D40004A4303EB62034FF47A729B1253433C4A9B
:103D50001B1323EAE3739342D4BFFB60FA6094F928
:103D60003680BCE80F00AEE80F00BCE80F00AEE8FC
:103D70000F00BCE80F00AEE80F009CE80F000CF14C
:103D8000100C8EE80F00BCE80F000DF1600EAEE8DD
:103D90000F00BCE80F00AEE80F00BCE80F00AEE873
:103DA0000F009CE80F008EE80F00052240F23C5106
:103DB000002306F00F0CC2FB081328AA02EB8C0CA0
:103DC0005CF8802CA1FB021002FB03030398B209EC
:103DD00042EA8002090CD2035CF8406C41EA0341DC
:103DE00012F17F4260EB000052184FEA234E40EB85
:103DF0002343A6FB010106FB0E1E400A560840EABB
:103E0000CE5046EAC3765910801941EB6E2107F077
:103E100021FB386175B1284629B0BDE8F08F0A2032
:103E2000236D984708F1FF3818F0FF087FF477AE4C
:103E30000225F0E7012384F84530ECE7301B110040
:103E4000A086010000232DE9F041244C244D207868
:103E500088B0C0F596718DF80530ADF806300DF1DB
:103E60000602204B89B228440295FEF729FFBDF8CF
:103E700006202378DFF8708013441A4FADF806301F
:103E80000DF1050303AA0DF1060102A8FEF76AFF72
:103E90009DF8053006460B2B03D1414603A8FFF7DA
:103EA0000DFA3B883EB9002B0CBF00221222BDF850
:103EB00006109142E4DC0022227023B1BDF8061006
:103EC00023788B4202D308B0BDE8F081029A501CDF
:103ED0000290581C20701278EA54F1E71009002073
:103EE00011090020440A0020154310000149FFF782
:103EF0002DB900BF400A00200D297FB516D16846B4
:103F000004AA02A9FEF7DCFD20B15C21094A0A4897
:103F1000FDF7B2F9094BBDF802201A80084BBDF835
:103F20000A201A80074BBDF812201A8007B05DF8EE
:103F300004FB00BFB0E41000B01B110042000020E1
:103F4000440000204600002000210148FCF724BF67
:103F5000453E10004FF4802230B5294B87B0C3F89E
:103F60008020BFF34F8FBFF36F8F0023254D26486E
:103F70006B6240F609336B650123EB65FEF748FE83
:103F80000446002839D12B6C2B6C9B05FCD56A4666
:103F90001E4B1868596803C2197AD3F809001170CA
:103FA000D3F80D1003AA03C25B7C6946002013708E
:103FB000FFF748F9044600BB69460220FFF742F9C3
:103FC0000446D0B9012003A9FFF73CF90446A0B983
:103FD0000F49FFF7C1F9044678B90D200D49FFF7E5
:103FE000CFF9044648B94FF48022054B0146C3F887
:103FF000802109481A60FCF7CFFE204607B030BD8B
:1040000000E100E0000700409FF21000241C1100B6
:10401000ED3E1000F93E1000453E100030B515464B
:1040200085B00A4620210446FFF780F940B90346CF
:10403000CDE9010000902A4620212046FEF700FE2F
:1040400005B030BD014B1888704700BF420000200A
:10405000014B1888704700BF440000202DE9F84349
:1040600003F1010906464846884617461C4607F0F4
:10407000C5FB054690B12246394600F8018B07F092
:10408000CDFB00234A4629463046FDF78BF804460F
:10409000284607F0BBFB60B2BDE8F8834FF0FF3065
:1040A000FAE773B515468DF807101E460122002366
:1040B0000DF107010446FDF775F8034610B140B253
:1040C00002B070BD324629462046FDF715F840B2D1
:1040D000F6E7000008B50448FDF74AFEBDE80840D1
:1040E00000210248FCF758BEA00A002045411000FC
:1040F00008B50448FDF760FEBDE80840002102480D
:10410000FCF74ABECC0A00200D41100010B50C4C43
:1041100088B004F18400FDF7E9FD214603A8FFF70C
:10412000E7FCD4F8B4304BB1BDF810206846ADF8C8
:104130000820069A0092059A0192984708B010BD8F
:10414000480A002010B50D4C94F84430012B14D1CE
:104150002046FFF7E9FA04F18400FDF7A5FD04F11C
:10416000840007490022FDF7DBFDB4F8B01004F12C
:104170008400BDE81040FDF7E7BD10BD480A0020EF
:10418000F140100038B57623144D6B700123AB70ED
:10419000134B2846AB64134BEB64134B2B6519236D
:1041A0002B71FFF703FA90B9104B85F83E00AB6313
:1041B0000F4B85F844002946DF202B64FFF7F3FA04
:1041C00028B92846FFF7B0FA044608B1204638BDA2
:1041D000294605F1B000FFF757FCF7E7480A002031
:1041E000A34010005D401000DD0E1000020202012D
:1041F0004001960038B50D46D0B10F4CB4F8B03040
:104200008B4215D80123C4F8B40004F1580084F897
:104210004430FDF749FD0022084904F15800FDF73C
:104220007FFD04F158002946FDF78EFD002038BDC2
:104230006FF00400FBE700BF480A0020D5401000E3
:1042400073B515468DF807101E46012200230DF1A7
:1042500007010446FCF7A6FF034610B140B202B0C6
:1042600070BD324629462046FCF746FF40B2F6E7CD
:104270002DE9F84303F101090646484688461746EA
:104280001C4607F0BBFA054690B12246394600F8B5
:10429000018B07F0C3FA00234A4629463046FCF753
:1042A00081FF0446284607F0B1FA60B2BDE8F88302
:1042B0004FF0FF30FAE7FCF711BE000038B5114CA3
:1042C000114B20466360114B0425A360104B236102
:1042D00028236370FEF7E6F90120FEF7CBFA013DD3
:1042E00015F0FF0502D16FF0060038BD2046FEF73D
:1042F00097FA2378832B03D03220FCF7EFFDEEE70B
:104300000020F2E7000B0020714210004142100033
:10431000B74210000146014808F0F0B8361C110001
:1043200043F20202014B43F820207047000700408F
:10433000800000F18040D0F8003713F03C0F02BF3E
:10434000D0F8003743F00103C0F800377047800011
:1043500000F18040D0F8003713F03C0F02BFD0F8D6
:10436000003723F00103C0F800377047EFF31082E5
:10437000012383F31088034B59890843588182F342
:1043800010887047A011002008B50120FFF7EEFF4C
:10439000BDE8084002F0AEBBEFF31081012383F3C8
:1043A0001088044A538923EA0000508181F3108861
:1043B000704700BFA011002008B5074B5B89DB07E1
:1043C00009D502F0D3FB032004F09AFFBDE80840B2
:1043D0000120FFF7E1BF08BDA0110020104B10B570
:1043E0001B786BB10F4A1049146800220B68E4FB7C
:1043F0000032580A40EAC250C0F308030B6010BDF7
:104400000A4A5368034403EB002303EBC003C3F3DE
:10441000080151601E22504300EB5320EFE700BF1C
:10442000180B0020140B0020500B0020A0110020BE
:1044300038B540F6030330F8082C04469A42A0F140
:104440000C050DD040F604039A421ED06FF40063B1
:104450001A44052A14D8DFE802F0333329451358EB
:1044600010F8043C3F2B12D8013B2C49D8B2C3F3BF
:10447000C403C95CA0EBC30341FA03F3D907E5D435
:104480002846BDE8384005F091B83E23ECE7572BAD
:104490000CD8403B214AD9B2C3F3C4031A44127A60
:1044A000A1EBC30342FA03F3DA07E9D514F8040CCD
:1044B00000F06CF80028E3D0437803F0030309E030
:1044C00034F8040C60B100F02BF80028D8D08378C1
:1044D000C3F30113012B09D0022B16D0002BCFD12F
:1044E00008230BE0207800F061F8E3E734F8063C9D
:1044F000072BC5D81B0243F009039BB2204624F8C2
:10450000063CBDE8384005F035B834F8063C072BCA
:10451000B6D81B0243F00503EFE700BF540B0020A1
:1045200030B5C0F30905800A012811D0032811D045
:10453000042811D0052811D0082811D03F2820D1F7
:104540000523114A02EBC30358685C8898B930BD53
:104550000023F6E70123F4E70223F2E70323F0E761
:104560000423EEE730F823200133C2F30902AA4204
:1045700002D10846EBE700239AB2944200EB830194
:10458000F0D80020E3E700BF3C1C11000022064BDE
:1045900013F81210814202D103EB4200704701323E
:1045A000092AF5D100207047A01D11000022064BFA
:1045B00013F81210814202D103EB4200704701321E
:1045C0000C2AF5D100207047B21D110070B58A6821
:1045D0008468868A131B23F07843B3F1806F8D8A39
:1045E00021D9A41A24F0784462420CB9AE421DD3FA
:1045F0004C8A2919891B002936DD40F271230139C3
:10460000B1FBF3F1D1422FD4438A33445B1B1B1B14
:10461000002B2BDC6FF41C7193FBF1F3D3424CBFE6
:10462000042003201BE01A46002BDFD0438A3344CA
:104630005B1B002B14DD6FF41C74581E90FBF4F010
:10464000104400280CDC498A5B1A002B0ADD013B70
:1046500093FBF4F31344002BCCBF0120022070BD68
:104660000020FCE70120FAE70520F8E70420F6E740
:104670002DE9F04F414F8146B846002658F80C4FBF
:1046800085B05CB9FB6833B13D4AD2F8003543F0E0
:104690008053C2F8003505B0BDE8F08F2268238A48
:1046A00001929A0B60D013F47C7FC3F305155BD0A5
:1046B000A27D03F00F010A444FF0000A494640F280
:1046C000712BA2756A1E23F47C7545EA0215ADB202
:1046D0002582C5F30132AD0B59B922463146404619
:1046E00005F081F922465146384605F091F93446E5
:1046F0003AE02046CDE90212FFF768FF0028ECD02F
:10470000DDE90212052802D18A460968E4E7488AF1
:10471000B1F814C0B4F814A08444BCFBFBFE0BFB3E
:104720001ECC8868E245704438BF0130012A1ED192
:1047300040F0010020F07840012DA060E4D9E3684A
:10474000A3EB000C2CF0784CBCF1806F98BF604656
:10475000B4F812C088BFC01ABCFBFBFC84BF20F0B9
:10476000784040428445CFDD2646019C89E7002AF7
:10477000E0D1013020F00100DCE700BF640B002035
:104780000010004038B500F12C050021284604F047
:1047900011FE044618B12A46002107F04DF82046C4
:1047A00038BD000038B5074C04F10C05E36803B9C7
:1047B00038BD284605F0F4F8436A002BF6D0984738
:1047C000F4E700BF640B00202DE9F74F8846098805
:1047D000002900F0B780D8F8042093B2002B00F035
:1047E000B1805C4C90F80EB0D4F814E0BBF1010F2E
:1047F000754603F1FF330CBF8689067D1FFA82F9E7
:104800000193002D00F099808E4280F09980428AB9
:10481000FF2A05D10020A8F8086003B0BDE8F08F9A
:10482000AF88A7B32B8993B3B5F80AC0048AA4450F
:104830002DD0B5F80CC08F423C4628BF0C4694459D
:1048400007D1BCF1010F26D1B5F80EC0C28A94453C
:1048500021D009EB0302A24272DCEA880133224430
:10486000013AB2FBF4FC04FB1C2292B2B1FBF4FC53
:1048700004FB1C1C13441FFA8CFC9BB2BCF1000F00
:1048800005D1B7FBF4FC04FB1C77BFB27FB1334604
:104890002D681E46B5E709EB0302A24250DCEA8808
:1048A000013BB2FBF4FC04FB1C2292B2DEE7B6FB38
:1048B000F4F704FB1767DDF804C0BFB2BC44BA428A
:1048C0001FFA8CFC43D8BB4203D2624513D8634520
:1048D0003AD3BBF1010F2ED00133B3FBF4F204FB4A
:1048E00012339BB29E421FD2047D03F00102ECB151
:1048F000F2B17546CDE7BA4201D16345E9D9A34289
:1049000007D3B3FBF4FA04FB1A3A1FFA8AFABA4542
:10491000DFD26445BBD8BCFBF4F704FB17CC1FFA0D
:104920008CFC9445B3D3D4E72344DAE7002AE0D0E3
:1049300001339BB2DDE70B46DBE78E42FFF46AAF43
:1049400003206AE7012068E7BA42D8D3C1E762458D
:10495000BFD9D2E7640B00204FF00042084BC3F8E8
:104960001C25D3F81C25002AFBDBD3F81C05D3F843
:104970002035692B98BF013020F07840704700BF88
:1049800000100040F8B54FF0FF333F49CB61FFF70F
:10499000E3FF0C68002C4CD0A268667E8D68931BE8
:1049A00023F07843CB610DB3EB7DFBB195F816C0D6
:1049B000A77DBC4503D2278A3F0548BF2B7EB5F9AA
:1049C0001450B4F914402C1BB4F5C87FC8BF013390
:1049D000DBB29E420AD2D31A23F078431A1A22F08D
:1049E0007842B2F1806F1FD8F2B1CB61FFF7B4FF0C
:1049F0006FF07C42CB69C31A934203D2431C23F06D
:104A00007843CB61CA69214BC3F81826D3F80C252B
:104A100012061BD48022C3F81825D3F80C2542F0C7
:104A20008002C3F80C2511E0013020F07840C86105
:104A3000DCE7CB690133D9D1144BD3F80C2522F034
:104A40008002C3F80C258022C3F81825104C237867
:104A50001BB9C0F380602070F8BD4301F9D44FF05A
:104A600000654A69002AF4D09188D688B5FBF1F335
:104A700001FB031303F17843334493FBF1F601FB8D
:104A80001633D3801268EDE7640B0020001000405D
:104A9000840B00202DE9F04F85B0044604F0A4FB00
:104AA000EFF310830193012383F31088DFF8E4B15F
:104AB000637EDBF808800133034423F07843B8F1C8
:104AC000000F0CD098F817204AB1191A0132D2B24F
:104AD00021F078418A42C4BF131823F07843278A13
:104AE0005FEA973905D0C7F30132012A16D143F0A6
:104AF0000103A268D11A21F07841B1F1806F16D973
:104B00009A1A32F0784212D0B9F1000F0ED101207A
:104B1000019B83F3108805B0BDE8F08F002AE8D12F
:104B2000013323F0784323F00103E2E7A360B9F1F6
:104B3000010F14D9D4E902218B1A23F07843B3F181
:104B4000806F88BF531A40F27121628A88BF23F0B8
:104B50007843B2FBF1F288BF5B429A42D7DC002572
:104B6000DBF800202E46B8F1000F14BF4146114675
:104B7000AA46C7F30137E1B12046CDE90212FFF79B
:104B800025FDB0B1DDE90212052840F271234CD0B9
:104B900094F816E091F816C0E6452CD988452AD03D
:104BA00000F0FD00002D08BF0E4601350128EDB2D2
:104BB0006BD17DB16A1E31463648D2B204F0F8FEA0
:104BC000354F31463846013D366804F0D9FE15F0C0
:104BD000FF05F6D1BAF1000F50D0224651462D48BC
:104BE00004F016FFDBF80C00002891D02046FFF7F8
:104BF0003FFD00208CE7B9F1000F88D0488A8D8AEC
:104C0000B4F814C00544B5FBF3F603FB16558868E9
:104C1000AC45304438BF0130012F27D140F00100AE
:104C200000252E4620F07840A060B9F1010F16D97A
:104C3000D4E902CEAEEB0C0020F07840B0F1806FEA
:104C400088BFACEB0E00B4F812C088BF20F07840EB
:104C5000BCFBF3FC88BF404284453FF758AF884512
:104C60000AD0002D08BF8A46096884E7002FD7D1F3
:104C7000013020F00100D3E711467CE721460548CA
:104C800004F088FEFFF77EFEACE7B9F1010FCFD844
:104C9000E7E700BF640B0020700B002070B50446EE
:104CA000EFF31086012383F3108808B9002005E094
:104CB000114DAB68834204D10020A86086F31088B0
:104CC00070BD2B68984205D1284604F069FEFFF7B5
:104CD00059FEEBE700220146284604F069FE024631
:104CE0000028E3D1214605F10C0004F061FE002804
:104CF000DCD10220E2E700BF640B00202DE9F04781
:104D00002D4E3468B56804F06FFA0746BDB17CB328
:104D1000AA7DA37D9A4202D2238A1B0535D4EA7D5F
:104D2000A368DB1B23F07843B3F1806F01D89A426C
:104D300005DB0023B3602B6A0BB128469847BCB152
:104D40006FF07C4ADFF8709009F10C08627EA3686E
:104D50009B1ADA1B22F07842524518D3484604F0D9
:104D60001FFE0146404604F00BFE3468002CEDD1D6
:104D7000F36833B1114AD2F8003543F08053C2F8DA
:104D80000035BDE8F047FFF7FDBD2A7EC8E723F0F8
:104D90007843BB42ECD1084804F002FEB3680446F5
:104DA0001BB11B6A0BB128469847E369B460002B1E
:104DB000DED020469847DBE7640B0020001000405F
:104DC000F0B5448807880C80BC4214D900224FF605
:104DD000FF75214B5B69D6B29BB9012E1DD8827A33
:104DE000002A36D0B4FBF2F353439BB29F4202D861
:104DF0009C4228BF0B804368022B38BF02234B60C4
:104E0000F0BDB3F80AC0068AB44503D09E88B54207
:104E100028BF35461B680132DDE7AC4203D3B4FB43
:104E2000F5F36B43E1E722464FF6FF73B5FBF2F66D
:104E300002FB1656B6B2002E08BF1346A2F10202BC
:104E400092B214BF002601269742CFD8002EEDD093
:104E5000CCE74FF6FF73CBE7640B00202DE9F0475A
:104E60000E46454B454FD3F800253D6822F480722D
:104E7000C3F80025D3F8002542F00042C3F800250E
:104E8000D3F80025002AFBDB2C46DFF8F490DFF88E
:104E9000F480B4B10022A36803F00F0303F10063B0
:104EA00003F590439B001A8036B1B4F878000828C7
:104EB00002D0012100F064FB012001F03DFB3C68C1
:104EC00054B9BDE8F0472C4AD2F8003543F480735A
:104ED000C2F80035FFF712BFB4F878000828D8D020
:104EE0005C224243A17D32F809A01E290AF01F0A64
:104EF00008D832F80930C3F342330B441F2B28BFC4
:104F00001F23A375012100F03BFBBAF1020F17D953
:104F10005C230121B5F878201B485A4322F8081079
:104F2000B5F878205A431152B5F878205A4332F830
:104F300009309BB223F4F85343F4706322F809302C
:104F40005C21B4F878200AF1010A4A4332F80930AA
:104F50009BB223F01F034AEA030A22F809A0B4F81F
:104F600078204A4332F809309BB223F0800343F0A3
:104F7000800322F809308CE700100040740C0020F8
:104F80004A2201200C2201200A2201202DE9F041B1
:104F9000394D3A4E04274FF00108D5F81045002C42
:104FA00067D0600703D5C5F81875FFF7EDF9E1077D
:104FB00005D5C5F81885FFF7FFF9FFF79FFE220614
:104FC00004D58023C5F81835FFF798FE23070ED5C2
:104FD0000823A007C5F8183548BF02234FF000008A
:104FE00044BFC5F8183524F0020401F0A5FAE10524
:104FF0000FD54FF48073A207C5F8183548BF0223B8
:105000004FF0010044BFC5F8183524F0020401F048
:1050100093FAA30704D50223C5F8183501F0B2FAB4
:10502000A00505D54FF40073C5F81835FFF7BAFB96
:10503000610604D54023C5F8183504F0E3F8E2060C
:1050400004D51023C5F8183500F034F9A306A4D50B
:1050500033680B4A01333360D5F860151368204676
:105060000B43136020230121C5F81835FFF7F6FE26
:1050700090E7BDE8F08100BF00100040880B0020E1
:105080008C0B002070B50378024613F0F80302D0B1
:10509000012917D00023184610E0042CD65C02D159
:1050A00016F0E00F10D1002446FA04F505F00105D2
:1050B00001342844082CC0B2F6D10133DCB2A1423D
:1050C000EBD870BD0020FCE72620FAE7054B03EB88
:1050D000D00393F83B3000F0070043FA00F000F0F3
:1050E00001007047900B0020024A13680360536868
:1050F00043607047CA1D1100032303700B70084BF7
:1051000093F83820D2075CBF93F83920027093F8E7
:10511000382092075CBF93F83A300B70704700BF9D
:10512000900B0020F0B54FF6FF76D3898BB05B0073
:10513000ADF81030138A14465B00ADF81230B1F8A8
:1051400064300D460593ADF81830937CADF820001F
:105150005B008DF81A30D38A01A99B1B18BF01236D
:105160008DF81E300123ADF8223000EB4003C0EB78
:10517000C300800000F5F870ADF8260004A8FFF722
:105180001FFEE08AAA68B042BDF8041046D0A38A88
:10519000B5F86060B5F87C709E428CBFF31A9B1B1B
:1051A0004FEA40008CBF07FB132207FB032280B2AB
:1051B00001F0ECFCADF81C009DF81C3001A903F0D7
:1051C000010304A88DF82430FFF7FEFA064660BB01
:1051D000A37C23B9BDF804305B08E38123824FF63A
:1051E000FF73E28A9A420BD1AA68BDF80410BDF899
:1051F0000C0001F0D6FCB5F860304008E082A382D4
:105200000B4B1A783AB94FF6FF7316462383638324
:10521000A383E383238430460BB0F0BDB2FBF1F3EC
:1052200001FB1322ADF81C20C6E71F26F3E700BFE1
:10523000000D00200122114600F07CB9082805D19C
:10524000064B9B6C43B193F87F007047044B53F8B7
:1052500020300BB15B69F5E705207047900B00200B
:10526000E00C0020022310B580F86D3090F88230F9
:10527000044643F0010280F88220A0F85C104A1E28
:10528000B0F8600092B2904204D143F0090384F870
:10529000823010BD8842FCD1B4F8780001F0DCFE09
:1052A00094F8823043F00803F1E70B4601461846B4
:1052B00000F02ABF012004F023B80000C36A10B533
:1052C0001C0448BF40F27124026B48BFC3F30D03B6
:1052D0004FEA42024CBF04FB0322D21890F84A3036
:1052E0001A44214B1B683BB1934205D21F4C2478D2
:1052F000ECB9002908BF1A4640F27124B0F85410E6
:105300000E2A04FB01F16FF41C74134638BF0E2300
:1053100021448B4204D21649096851B18B4208D30B
:1053200090F85A3043F0100380F85A3010BD1A46F6
:10533000E2E743F68E518A420DD940F2712203F51D
:105340001C73B3FBF2F36FEA43436FEA5343828863
:105350009BB20AB101339BB25C21B0F850204A43A2
:1053600004495352C362E1E7640C0020600C002042
:10537000680C0020062201202DE9F04140F2712E38
:105380005C25848DB0F878200EFB0144B4FBFEF15F
:105390005543344BD0F82880EF5A01EB080CBEB2CD
:1053A0003FB2002FB8BFC6F34D030EFB1141B8BF8B
:1053B0000EFB134440F2712E90F87130A8BFA4EB9D
:1053C0005604E41AB4FBFEF30EFB1344434423F0EB
:1053D00078438360244B2CF0784C53F82230C0F88B
:1053E00028C0B3F84C2090F874C090F873E0B2FB7A
:1053F000FCF2B3F84AC089B2BCFBFEFC818593F88D
:10540000A93062449B0792B20CBF06320E32002FC5
:10541000B8BFC6F30E0692B24FEAC203BCBFC6EBDA
:10542000461206EB820603F58373B8BF06EB8606C9
:105430009BB233449BB20B4440F2E2419BB28B429D
:1054400038BF0B4640F27121438203F51C73B3FB56
:10545000F1F3026DA4B21381044BEC528482BDE8D7
:10546000F08100BF06220120E00C0020F221012083
:1054700010B500210446082003F09CFF446001465B
:10548000BDE81040014804F07BBA00BF7C0C00204E
:1054900070B506460D460C200021144603F08AFF25
:1054A0000146466005724472EFF31084012383F3D2
:1054B0001088034804F064FA84F3108870BD00BFBC
:1054C000840C00200C4B1A6852B140F271225B68C8
:1054D000588A9B68B0FBF2F0184420F0784070477F
:1054E0004FF00042054BC3F81C25D3F81C25002AB9
:1054F000FBDBD3F81C057047740C00200010004043
:1055000010B570B1094B9C683CB16368834206D109
:1055100000222146064804F04BFA204610BD2468BC
:10552000F2E70348BDE8104004F03ABA740C0020DA
:105530007C0C00202DE9F04104460E461546EFF3A1
:105540001088012787F3108890F8833063B903210E
:105550000C2003F02FFF446006724572014684F868
:105560008370064804F00CFA88F310882020FEF7B8
:10557000FDFEBDE8F041062003F0C2BE940C002001
:105580005C2358430C4A10B5835AC3F3042403F038
:105590003F0301FB0431252391FBF3F403FB1411BA
:1055A000835A0029B8BF25319BB209B223F03F03CB
:1055B000194389B2815210BD0222012038B5144B23
:1055C000044693F82C3080F85830002380F8563089
:1055D00080F85B3080F84530838680F85C3080F856
:1055E0005E30EFF31085012383F31088083004F058
:1055F000C3F904F1100004F0BFF904F1180004F03D
:10560000BBF904F1200004F0B7F985F3108838BD28
:105610001C0B002030B50A4A0A4B92F8282033F8B8
:10562000124033F8112042F20F71074B5B685D1E88
:105630008D4288BFA318584329235843000C30BD1E
:10564000740C0020102011002000002038B5044602
:10565000B0F8623000F12805B0F87C0094F86E10C4
:1056600003FB000080B2FFF7D5FF78B1A0655C2294
:10567000B4F8783028465343064A94F875109B5A7C
:105680009BB26365BDE83840FFF718BE0123A365F0
:10569000EDE700BF062201202DE9F84F90F87F309A
:1056A00004460E4600F12808042B3FD8DFE813F02B
:1056B00005004700F9038300AD01C44BC44D5B698D
:1056C00093F82110D1B1C34B9B7BB3BB06F0D2FF43
:1056D00000F00F00013000F01E00A268B4F87C302A
:1056E0001344184420F07840A060EB7A03F00F03D5
:1056F00043F4C14343F02003238217E0FFF7E2FEA7
:10570000E26DA060E2606B7B03F00F0343F4204383
:1057100043F050032382131A23F07843B3F1806FD0
:1057200004D9801A30F0784340F0C18394F88200A5
:1057300080F01000C0F300101FE00020CDE790F8CB
:105740006030E3B15C22B0F878305343A24A9B5AF0
:10575000180414D594F861308BB10020B2F8DC3213
:10576000B2F8DE129BB243EA0143A362B2F8E03220
:10577000C3F30903C3F51C73A385BDE8F88FA16DBE
:10578000B4F87C30626D0B4423F0784140F2712311
:10579000B2FBF3F38E4A0B44527823F0784302F0C5
:1057A0000F0242F4204242F05002A165A160E3657D
:1057B0002282E360BAE7B0F87800884F57F82030CB
:1057C000B3F96010B3F86020002905DAC2F30E02C5
:1057D000A3F8602003F0ACFCB4F8780057F8202060
:1057E000B2F86030590405D523F48043A2F8603044
:1057F00003F06CFCB4F85C20B4F86010531E9BB24C
:10580000994240F0EF8094F86D30002B00F0EA8070
:105810001420022BA07500F0CF80032B00F0D18064
:10582000012B40F0A6806568B4F87C00B5F87CE0F8
:10583000B4F87890704557F8293005F1280C0BD151
:10584000B4F85EA0B5F85E00824505D1B3F858A063
:10585000B3F85A00824505D0B3F8600040F08000EC
:10586000A3F8600094F87030A5F8601085F87030E7
:1058700005F14803D4E91201A5F85C2083E8030090
:10588000D4E90C0105F1300383E80300D4E91001E9
:1058900005F1400383E80300D4E90E0105F1380364
:1058A00083E80300A5F8789094F8823040F27129DB
:1058B00085F88230012385F86D30B4F868304046B1
:1058C000A5F86830B4F86A304FF00008A5F86A30DF
:1058D00094F8743085F8743094F8733085F8733028
:1058E000B4F87A30226DA5F87A30AB682A65A3EB5C
:1058F0000E0323F07843B3FBFEF1A3600EFB1133DC
:10590000D3806B8AA2F804E0B3FBF9F109FB1133F1
:105910009BB2002B18BF0131118194F88130614690
:10592000602285F8813005F079FF5C22638AC4F833
:105930000480B3FBF9F9B4F87830C5F80480534318
:10594000274AC5F8508023F80290B4F878302046F2
:1059500057F82330B3F85420B3F8521001F034F95B
:10596000284642464146FFF7E5FDB4F8780001F0CD
:1059700053FB26B10121B4F87800FFF701FEA268BD
:10598000B4F87C30134423F07843A3600023A4F8D8
:105990006230B4F8603094F8822001339BB29607ED
:1059A000A4F860307FF5C2AE052B7FF6BFAE42F0A3
:1059B000100284F88220B9E6B4F8780001F04CFBBC
:1059C000D7E7204601F098F9D3E700BF900B0020FD
:1059D000480000202000002044220120E00C00208C
:1059E0000A2201209142C4D1142394F86D00A375BA
:1059F000431E022B214688BF002001F0D9FB002363
:105A000084F86D30A4F85C30B3E7B0F87800DFF8C4
:105A1000C8A05AF82030B3F96010B3F8602000290C
:105A200005DAC2F30E02A3F8602003F081FBB4F89C
:105A300078005AF82020B2F860305D0405D523F4D0
:105A40008043A2F8603003F041FB5C22B4F8783068
:105A50005343224A995AC1F3C037090446D5002E50
:105A600040F0DA8120201E495852EFF310810123C3
:105A700083F31088206B28B9206C18B9A36C003B05
:105A800018BF012381F3108894F8841094F88200E1
:105A9000002900F07D8194F885601EB160F07F00E0
:105AA00084F88200B6B2A4F86260771C5C21B4F876
:105AB00078300C484B430C49595A185A9B5A89B2B2
:105AC000C3F30903C3F51C73A385002341EA004116
:105AD000A16284F875300BE0E00C00204422012024
